{
    "contractName": "TodoList",
    "abi": [
        {
            "inputs": [],
            "name": "taskCount",
            "outputs": [
                {
                    "internalType": "uint256",
                    "name": "",
                    "type": "uint256"
                }
            ],
            "stateMutability": "view",
            "type": "function"
        }
    ],
    "bytecode": "608060405260008055348015601357600080fd5b50607d806100226000396000f3fe6080604052348015600f57600080fd5b506004361060285760003560e01c8063b6cb58a514602d575b600080fd5b603560005481565b60405190815260200160405180910390f3fea2646970667358221220dc95520ac048167e6b7f88d6b3a3d0d46ae1abaa9b501b1d04248bb365f6d71564736f6c63430008110033",
    "sourcePath": "d:/todo-list-dapp-blockchain/migrations/TodoList.sol",
    "compiler": {
        "name": "solc",
        "version": "0.8.17+commit.8df45f5f"
    },
    "functionHashes": {
        "taskCount()": "b6cb58a5"
    },
    "gasEstimates": {
        "creation": {
            "codeDepositCost": "25000",
            "executionCost": "5081",
            "totalCost": "30081"
        },
        "external": {
            "taskCount()": "2261"
        }
    }
}