{
    "contractName": "TodoList",
    "abi": [
        {
            "anonymous": false,
            "inputs": [
                {
                    "indexed": false,
                    "internalType": "uint256",
                    "name": "id",
                    "type": "uint256"
                },
                {
                    "indexed": false,
                    "internalType": "bool",
                    "name": "completed",
                    "type": "bool"
                }
            ],
            "name": "TaskCompleted",
            "type": "event"
        },
        {
            "anonymous": false,
            "inputs": [
                {
                    "indexed": false,
                    "internalType": "string",
                    "name": "task",
                    "type": "string"
                },
                {
                    "indexed": false,
                    "internalType": "bool",
                    "name": "isDone",
                    "type": "bool"
                }
            ],
            "name": "TaskCreated",
            "type": "event"
        },
        {
            "inputs": [
                {
                    "internalType": "string",
                    "name": "_task",
                    "type": "string"
                }
            ],
            "name": "createTask",
            "outputs": [],
            "stateMutability": "nonpayable",
            "type": "function"
        },
        {
            "inputs": [],
            "name": "getTaskCount",
            "outputs": [
                {
                    "internalType": "uint256",
                    "name": "",
                    "type": "uint256"
                }
            ],
            "stateMutability": "view",
            "type": "function"
        },
        {
            "inputs": [
                {
                    "internalType": "uint256",
                    "name": "_taskIndex",
                    "type": "uint256"
                }
            ],
            "name": "getTasks",
            "outputs": [
                {
                    "components": [
                        {
                            "internalType": "uint256",
                            "name": "id",
                            "type": "uint256"
                        },
                        {
                            "internalType": "string",
                            "name": "task",
                            "type": "string"
                        },
                        {
                            "internalType": "bool",
                            "name": "isDone",
                            "type": "bool"
                        }
                    ],
                    "internalType": "struct TodoList.Task",
                    "name": "",
                    "type": "tuple"
                }
            ],
            "stateMutability": "view",
            "type": "function"
        },
        {
            "inputs": [],
            "name": "taskCount",
            "outputs": [
                {
                    "internalType": "uint256",
                    "name": "",
                    "type": "uint256"
                }
            ],
            "stateMutability": "view",
            "type": "function"
        },
        {
            "inputs": [
                {
                    "internalType": "uint256",
                    "name": "_taskIndex",
                    "type": "uint256"
                },
                {
                    "internalType": "bool",
                    "name": "_status",
                    "type": "bool"
                }
            ],
            "name": "toggleCompleted",
            "outputs": [],
            "stateMutability": "nonpayable",
            "type": "function"
        }
    ],
    "bytecode": "60806040526000805534801561001457600080fd5b506106aa806100246000396000f3fe608060405234801561001057600080fd5b50600436106100575760003560e01c8063111002aa1461005c578063b6cb58a514610071578063c17a340e1461008d578063cf8f4be2146100a2578063e962b7f3146100c2575b600080fd5b61006f61006a366004610372565b6100d5565b005b61007a60005481565b6040519081526020015b60405180910390f35b3360009081526001602052604090205461007a565b6100b56100b03660046103e4565b6101d3565b60405161008491906103fd565b61006f6100d036600461046b565b6102ea565b6000805490806100e4836104a0565b90915550503360009081526001602090815260408083208151606081018352935484528151601f8601849004840281018401909252848252929182810191908690869081908401838280828437600092018290525093855250505060209182018190528354600181810186559482529082902083516003909202019081559082015191929091908201906101789082610566565b50604091820151600291909101805460ff1916911515919091179055517f7244e4a3935407016a588c9e4e489cab5bc4dfdbecaeb759027a74d97ac3de57906101c79084908490600090610626565b60405180910390a15050565b6101f9604051806060016040528060008152602001606081526020016000151581525090565b33600090815260016020526040812080548490811061021a5761021a61065e565b906000526020600020906003020190508060405180606001604052908160008201548152602001600182018054610250906104dd565b80601f016020809104026020016040519081016040528092919081815260200182805461027c906104dd565b80156102c95780601f1061029e576101008083540402835291602001916102c9565b820191906000526020600020905b8154815290600101906020018083116102ac57829003601f168201915b50505091835250506002919091015460ff1615156020909101529392505050565b33600090815260016020526040902080548291908490811061030e5761030e61065e565b906000526020600020906003020160020160006101000a81548160ff0219169083151502179055507fe21fa966ca5cd02748c0752352d18c48165e61cb55b4c29cccf924b5a95fcff182826040516101c79291909182521515602082015260400190565b6000806020838503121561038557600080fd5b823567ffffffffffffffff8082111561039d57600080fd5b818501915085601f8301126103b157600080fd5b8135818111156103c057600080fd5b8660208285010111156103d257600080fd5b60209290920196919550909350505050565b6000602082840312156103f657600080fd5b5035919050565b600060208083528351818401528084015160606040850152805180608086015260005b8181101561043c5782810184015186820160a001528301610420565b50600085820160a00152604086015180151560608701529250601f01601f19169390930160a001949350505050565b6000806040838503121561047e57600080fd5b823591506020830135801515811461049557600080fd5b809150509250929050565b6000600182016104c057634e487b7160e01b600052601160045260246000fd5b5060010190565b634e487b7160e01b600052604160045260246000fd5b600181811c908216806104f157607f821691505b60208210810361051157634e487b7160e01b600052602260045260246000fd5b50919050565b601f82111561056157600081815260208120601f850160051c8101602086101561053e5750805b601f850160051c820191505b8181101561055d5782815560010161054a565b5050505b505050565b815167ffffffffffffffff811115610580576105806104c7565b6105948161058e84546104dd565b84610517565b602080601f8311600181146105c957600084156105b15750858301515b600019600386901b1c1916600185901b17855561055d565b600085815260208120601f198616915b828110156105f8578886015182559484019460019091019084016105d9565b50858210156106165787850151600019600388901b60f8161c191681555b5050505050600190811b01905550565b6040815282604082015282846060830137600060608483018101919091529115156020820152601f909201601f191690910101919050565b634e487b7160e01b600052603260045260246000fdfea26469706673582212202dac105b23d61a6638597eb200a58c8378664892d9fa31465656b78a5256ed8664736f6c63430008110033",
    "sourcePath": "d:/todo-list-dapp-blockchain/contracts/TodoList.sol",
    "compiler": {
        "name": "solc",
        "version": "0.8.17+commit.8df45f5f"
    },
    "functionHashes": {
        "createTask(string)": "111002aa",
        "getTaskCount()": "c17a340e",
        "getTasks(uint256)": "cf8f4be2",
        "taskCount()": "b6cb58a5",
        "toggleCompleted(uint256,bool)": "e962b7f3"
    },
    "gasEstimates": {
        "creation": {
            "codeDepositCost": "341200",
            "executionCost": "5386",
            "totalCost": "346586"
        },
        "external": {
            "createTask(string)": "infinite",
            "getTaskCount()": "2371",
            "getTasks(uint256)": "infinite",
            "taskCount()": "2284",
            "toggleCompleted(uint256,bool)": "28258"
        }
    }
}