{
  "contractName": "TodoList",
  "abi": [
    {
      "anonymous": false,
      "inputs": [
        {
          "indexed": false,
          "internalType": "uint256",
          "name": "id",
          "type": "uint256"
        },
        {
          "indexed": false,
          "internalType": "bool",
          "name": "isDone",
          "type": "bool"
        }
      ],
      "name": "TaskCompleted",
      "type": "event"
    },
    {
      "anonymous": false,
      "inputs": [
        {
          "indexed": false,
          "internalType": "uint256",
          "name": "id",
          "type": "uint256"
        },
        {
          "indexed": false,
          "internalType": "string",
          "name": "task",
          "type": "string"
        },
        {
          "indexed": false,
          "internalType": "bool",
          "name": "isDone",
          "type": "bool"
        }
      ],
      "name": "TaskCreated",
      "type": "event"
    },
    {
      "inputs": [],
      "name": "taskCount",
      "outputs": [
        {
          "internalType": "uint256",
          "name": "",
          "type": "uint256"
        }
      ],
      "stateMutability": "view",
      "type": "function",
      "constant": true
    },
    {
      "inputs": [
        {
          "internalType": "string",
          "name": "_task",
          "type": "string"
        }
      ],
      "name": "createTask",
      "outputs": [],
      "stateMutability": "nonpayable",
      "type": "function"
    },
    {
      "inputs": [
        {
          "internalType": "uint256",
          "name": "_taskIndex",
          "type": "uint256"
        }
      ],
      "name": "getTask",
      "outputs": [
        {
          "components": [
            {
              "internalType": "uint256",
              "name": "id",
              "type": "uint256"
            },
            {
              "internalType": "string",
              "name": "task",
              "type": "string"
            },
            {
              "internalType": "bool",
              "name": "isDone",
              "type": "bool"
            }
          ],
          "internalType": "struct TodoList.Task",
          "name": "",
          "type": "tuple"
        }
      ],
      "stateMutability": "view",
      "type": "function",
      "constant": true
    },
    {
      "inputs": [
        {
          "internalType": "uint256",
          "name": "_taskIndex",
          "type": "uint256"
        }
      ],
      "name": "toggleCompleted",
      "outputs": [],
      "stateMutability": "nonpayable",
      "type": "function"
    },
    {
      "inputs": [],
      "name": "getTaskCount",
      "outputs": [
        {
          "internalType": "uint256",
          "name": "",
          "type": "uint256"
        }
      ],
      "stateMutability": "view",
      "type": "function",
      "constant": true
    }
  ],
  "bytecode": "0x60806040526000805534801561001457600080fd5b50610684806100246000396000f3fe608060405234801561001057600080fd5b50600436106100575760003560e01c8063111002aa1461005c5780631d65e77e14610071578063455f50241461009a578063b6cb58a5146100ad578063c17a340e146100c4575b600080fd5b61006f61006a366004610379565b6100d9565b005b61008461007f3660046103eb565b6101db565b6040516100919190610404565b60405180910390f35b61006f6100a83660046103eb565b6102f2565b6100b660005481565b604051908152602001610091565b336000908152600160205260409020546100b6565b3360009081526001602090815260408083208151606081018352935484528151601f8601849004840281018401909252848252929182810191908690869081908401838280828437600092018290525093855250505060209182018190528354600181810186559482529082902083516003909202019081559082015191929091908201906101689082610511565b50604091820151600291909101805460ff19169115159190911790556000805491517f05d0fb833127fc08168556d0e7ca9554fc3f6bc843b3b7d2bf1c35aea6bab660926101bb929091869186916105d1565b60405180910390a16000805490806101d283610611565b91905055505050565b610201604051806060016040528060008152602001606081526020016000151581525090565b33600090815260016020526040812080548490811061022257610222610638565b90600052602060002090600302019050806040518060600160405290816000820154815260200160018201805461025890610488565b80601f016020809104026020016040519081016040528092919081815260200182805461028490610488565b80156102d15780601f106102a6576101008083540402835291602001916102d1565b820191906000526020600020905b8154815290600101906020018083116102b457829003601f168201915b50505091835250506002919091015460ff1615156020909101529392505050565b33600090815260016020819052604090912080548390811061031657610316610638565b600091825260209182902060039190910201600201805460ff191692151592909217909155604080518381526001928101929092527fe21fa966ca5cd02748c0752352d18c48165e61cb55b4c29cccf924b5a95fcff1910160405180910390a150565b6000806020838503121561038c57600080fd5b823567ffffffffffffffff808211156103a457600080fd5b818501915085601f8301126103b857600080fd5b8135818111156103c757600080fd5b8660208285010111156103d957600080fd5b60209290920196919550909350505050565b6000602082840312156103fd57600080fd5b5035919050565b600060208083528351818401528084015160606040850152805180608086015260005b818110156104435782810184015186820160a001528301610427565b50600085820160a00152604086015180151560608701529250601f01601f19169390930160a001949350505050565b634e487b7160e01b600052604160045260246000fd5b600181811c9082168061049c57607f821691505b6020821081036104bc57634e487b7160e01b600052602260045260246000fd5b50919050565b601f82111561050c57600081815260208120601f850160051c810160208610156104e95750805b601f850160051c820191505b81811015610508578281556001016104f5565b5050505b505050565b815167ffffffffffffffff81111561052b5761052b610472565b61053f816105398454610488565b846104c2565b602080601f831160018114610574576000841561055c5750858301515b600019600386901b1c1916600185901b178555610508565b600085815260208120601f198616915b828110156105a357888601518255948401946001909101908401610584565b50858210156105c15787850151600019600388901b60f8161c191681555b5050505050600190811b01905550565b848152606060208201528260608201528284608083013760008184016080908101919091529115156040820152601f909201601f19169091010192915050565b60006001820161063157634e487b7160e01b600052601160045260246000fd5b5060010190565b634e487b7160e01b600052603260045260246000fdfea2646970667358221220527ed57e4766bbcf7c3d1b17f2c489525d05266508d171a2612b24859a0af04564736f6c63430008110033",
  "immutableReferences": {},
  "source": "// SPDX-License-Identifier: AGPL-3.0-only\r\npragma solidity ^0.8.17;\r\n\r\ncontract TodoList {\r\n    // Taskcount, used as an ID value\r\n    uint256 public taskCount = 0;\r\n\r\n    // Structure of a task. This structure represents what a task consists of\r\n    struct Task {\r\n        uint256 id;\r\n        string task;\r\n        bool isDone;\r\n    }\r\n\r\n    // Give an address to the mapping of Users and it will give you back an array of the Tasks that belongs to that specific user\r\n    // See this is a key-value pair\r\n    mapping(address => Task[]) private Users;\r\n\r\n    // Event will create logging for external subscribers\r\n    // Event TaskCreated\r\n    event TaskCreated(uint256 id, string task, bool isDone);\r\n\r\n    // Event TaskCompleted\r\n    event TaskCompleted(uint256 id, bool isDone);\r\n\r\n    // Function to create a task. Param _task means it is a variable from local memory\r\n    // calldata means it is non-modifiable variable\r\n    function createTask(string calldata _task) external {\r\n        // Push a new task into the Users mapping\r\n        // Notice the msg.sender. This will make sure we add the Task to the correct address of the account the call is coming from\r\n        Users[msg.sender].push(\r\n            Task({id: taskCount, task: _task, isDone: false})\r\n        );\r\n        // Emit the event TaskCreated so we know the transaction went through\r\n        emit TaskCreated(taskCount, _task, false);\r\n\r\n        // Increment the taskCount (ID) by one\r\n        taskCount++;\r\n    }\r\n\r\n    // Function to get a Task. Param _taskIndex is a memory variable and corressponds to the ID of the task\r\n    // Return value is a Task object as a memory variable\r\n    function getTask(uint256 _taskIndex) external view returns (Task memory) {\r\n        // We have to go into storage variables because the Task is saved on the blockchain\r\n        // Accessing the mapping function Users. Using the address of the user making the call with the corresponding ID (_taskIndex)\r\n        Task storage task = Users[msg.sender][_taskIndex];\r\n        return task;\r\n    }\r\n\r\n    // Function toggleCompleted to check a task off. Param _taskIndex is a memory variable and cannot be a negative integer\r\n    function toggleCompleted(uint256 _taskIndex) external {\r\n        // Access the mapping User giving the address of the current User making the call and the corresponding ID\r\n        // Modifying the isDone boolean attribute of the struct we created to true\r\n        Users[msg.sender][_taskIndex].isDone = true;\r\n\r\n        // Emit the event taskCompleted so we know the transaction went through\r\n        emit TaskCompleted(_taskIndex, true);\r\n    }\r\n\r\n    // Function getTaskCount will return a uint256 as the taskCount value\r\n    function getTaskCount() external view returns (uint256) {\r\n        // What we return is the length of the Users mapping function for the address that made the call\r\n        return Users[msg.sender].length;\r\n    }\r\n}\r\n",
  "sourcePath": "D:\\todo-list-dapp-blockchain\\contracts\\TodoList.sol",
  "compiler": {
    "name": "solc",
    "version": "0.8.17+commit.8df45f5f.Emscripten.clang"
  },
  "schemaVersion": "3.4.10",
  "updatedAt": "2022-11-01T18:38:02.300Z",
  "networkType": "ethereum",
  "devdoc": {
    "kind": "dev",
    "methods": {},
    "version": 1
  },
  "userdoc": {
    "kind": "user",
    "methods": {},
    "version": 1
  }
}